:100000000C943A020C9462020C9462020C948D16C9
:100010000C9462020C94B6160C9462020C9469164D
:100020000C9462020C9462020C9462020C946202C0
:100030000C9462020C9462020C94DF160C9462021F
:100040000C94CF150C9462020C9437160C94111674
:100050000C9462020C9462020C9462020C94620290
:100060000C9462020C9462020C9462020C94620280
:100070000C9462020C9462020C9462020C94620270
:100080000C9462020C9462020C9462020C94620260
:100090000C9462020C9462020C9462020C94620250
:1000A0000C9462020C9462020C9462020C94620240
:1000B0000C94620200000000240027002A002D009A
:1000C000000000002300260029002C000000000092
:1000D000250028002B002E0004040404040404045A
:1000E00002020202020203030303030302020305E6
:1000F00005050501020408102040800102040810D3
:1001000020010204081020408040010204080A0D6A
:100110000E090003020000040508000000000000B2
:1001200000000000000000000000000000000000CF
:100130000000005F5F0000000000070700000707E5
:1001400000147F7F14147F7F1400242E6B6B3A12EF
:1001500000006333180C66630000307E4F59377A15
:1001600048000000070700000000001C3E4141005D
:1001700000000041413E1C0000082A3E1C1C3E2A93
:10018000080008083E3E08080000000060E000008B
:10019000000008080808080800000060600000006F
:1001A0000000406030180C0400003E7F41417F3E5B
:1001B000000040427F7F40400000727B49494F462B
:1001C0000000226349497F360000181C16137F7F08
:1001D0001000276745457D3900003E7F49497B3245
:1001E0000000030101797F070000367F49497F360F
:1001F0000000266F49497F3E0000003636000000AF
:1002000000000036760000000000081C36220000C6
:10021000000000141414140000000022361C080012
:100220000000020351590F0600003E415D555E007B
:1002300000007C7E0B0B7E7C00007F7F49497F366F
:1002400000003E7F4141632200007F7F41633E1CEE
:1002500000007F7F4949414100007F7F090901017A
:1002600000003E7F41497B3A00007F7F08087F7F86
:10027000000000417F7F410000002060417F3F017E
:1002800000007F7F1C36634100007F7F404040407C
:1002900000007F7F060C067F7F007F7F0E1C7F7F24
:1002A00000003E7F41417F3E00007F7F09090F062D
:1002B00000001E3F21617F5E00007F7F19396F467D
:1002C0000000266F49497B32000001017F7F010158
:1002D00000003F7F40407F3F00001F3F60603F1FA6
:1002E00000007F7F3018307F7F0063771C1C7763AE
:1002F0000000070F78780F0700006171594D4743E0
:100300000000007F7F414100000002060C183020F1
:1003100000000041417F7F00000008040204080043
:10032000000040404040404000000000070700003F
:100330000000207454547C7800007E7E4848783059
:100340000000387C444444000000307848487E7EF9
:100350000000387C54545C18000000087C7E0A0AB7
:10036000000098BCA4A4FC7C00007E7E0808787085
:10037000000000007A7A0000000000C080FA7A00D5
:1003800000007E7E103C6C40000000027E7E40003B
:1003900000007C7C047C047800007C7C04047C7875
:1003A0000000387C44447C380000FCFC24243C18C9
:1003B0000000183C2424FCFC00007C7C04040C0895
:1003C0000000485C54547424000004043E7E4444FD
:1003D00000003C7C40407C7C00001C3C60603C1C7D
:1003E00000003C7C407C403C0000446C38386C444D
:1003F00000009CBCA0E0FC7C00004464745C4C44A5
:100400000000083E7741410000000000F7F70000BF
:100410000000004141773E08000010080810100855
:100420000000387C44447C38000000487C7C40005C
:1004300000004864745C4C400000286C44547C28E4
:1004400000001018107C7C1000005C5C54742400C8
:100450000000387C5454702000000464741C0C04A8
:100460000000287C54547C280000085C54743C181C
:100470000000041711241FBECFEFD8E0DEBFCDBFB0
:1004800015E0A0E0B1E0ECE7FAE302C005900D92C0
:10049000A036B107D9F726E0A0E6B5E001C01D926D
:1004A000AF3EB207E1F712E0CAE3D2E004C0219701
:1004B000FE010E94811CC933D107C9F70E945E1753
:1004C0000C943C1D0C9400009FB39370E9F790E0EE
:1004D00092BD81BD60BDFA9AF99A08959FB3937059
:1004E000E9F790E092BD81BDF89A80B5089584E95E
:1004F0008093DC008091DC0084FDFCCF80E00895D7
:10050000CF938093DB0084E88093DC008091DC0053
:1005100087FFFCCF8091D900887FC0E0883251F0FE
:10052000C091D900C87F8091D900887F803329F499
:100530000E9477028C2FCF9108951092DC0084E402
:100540008093DC00F7CFCF9388E78093DB0084E8CB
:100550008093DC008091DC0087FFFCCF8091D90084
:10056000887F8831E9F08091D900887F8034C1F09C
:10057000C091D900C87F8091D900887F803269F00E
:100580008091D900887F883441F01092DC0084E4A7
:100590008093DC008C2FCF9108950E947702FACFD0
:1005A000C0E0F8CF84EA8093DC008091DC0087FF14
:1005B000FCCF8091D900887F8830B9F08091D90034
:1005C000887F803191F08091D900887F883349F409
:1005D0008091D900887F1092DC0094E49093DC0035
:1005E00008958091D900887F089580E00895CF9381
:1005F000DF93D82FC62F0E94D2020E94A3028D2F14
:100600000E9480028C2F0E948002DF91CF910C9477
:100610007702EF92FF920F931F93CF93DF93809116
:100620001906882309F445C0813009F424C28230B8
:10063000C1F0833009F4A6C2843009F4E4C18530E6
:1006400009F419C2863069F0873009F401C481E0E9
:1006500080931906DF91CF911F910F91FF90EF903A
:10066000089586EC80937C0080917A00806480936A
:100670007A00809178009091790020910106309164
:10068000020630930406209303068F5F91409093F7
:10069000020680930106809119068F5F8830C0F2B0
:1006A00010921906DF91CF911F910F91FF90EF905B
:1006B000089586EC80937C0080917A00806480931A
:1006C0007A0020917800309179002F5F314080913D
:1006D000FF05909100064091010650910206480FD7
:1006E000591FCA01880F991F840F951F820F931FEE
:1006F0004091030650910406840F951F95958795A8
:10070000309300062093FF05C0910506D0910606A0
:1007100020910706309108062C0F3D1FE901CC0FF0
:10072000DD1FC20FD31FC80FD91F209109063091BA
:100730000A06C20FD31F9093060680930506E09029
:100740001706F09018068091FD059091FE05209106
:10075000FB053091FC05AC01421B530B9A01409103
:10076000F9055091FA05B901641B750B7093F805F2
:100770006093F7053093FA052093F9059093FC05F3
:100780008093FB05F594E794F594E7944AE150E0F3
:100790006DEC75E08BEC95E00E94211DF092E60572
:1007A000E092E5052091D3053091D4054091DF0515
:1007B0005091E005241B350B0091D7051091D80509
:1007C0004091DB055091DC05041B150B8091CF0592
:1007D0009091D0054091E3055091E405841B950B61
:1007E000880F991F880F991F4091CB055091CC0518
:1007F0004E195F09840F951F97FDCF96082E892FFC
:10080000000C881F990B000C881F991FA901400F2D
:10081000511F57FF02C0495F5F4F5595479555954A
:10082000479555954795840F951FA901440F551F6E
:10083000440F551F240F351F201B310B37FF02C0FB
:1008400021583F4F220F232F221F330B820F931F5C
:1008500017FF02C00F5F1F4F15950795080F191F4F
:100860004CE050E06BEE75E089EE95E00E94211DB2
:10087000D595C795D595C795D093F605C093F50541
:100880008091E9059091EA052091E805222309F479
:10089000B7C0080F191F1195019511094CE050E0E0
:1008A0006DEB75E08FEB95E00E94211D1093BE0566
:1008B0000093BD0580913F01813009F46FC208F4B7
:1008C0001EC2823009F4C3C1833009F076C0809122
:1008D000C9059091CA05800F911FAC01440F551FA7
:1008E000440F551F440F551F052E000C660B770B48
:1008F0008091BF059091C0052091C7053091C80532
:10090000820F931F880F991F880F991F880F991FB7
:10091000092E000CAA0BBB0B481B590B6A0B7B0B57
:100920002091C1053091C2058091C5059091C60501
:10093000280F391F220F331F220F331F220F331F9F
:10094000C901330FAA0BBB0B480F591F6A1F7B1F2E
:100950008091C3059091C4059C010024369527958C
:100960000794369527950794322F202DFC01EE0F22
:10097000FF1FE295F295F07FFE27E07FFE272E0F06
:100980003F1F82959295907F9827807F9827820FAE
:10099000931F092E000CAA0BBB0B840F951FA61FDB
:1009A000B71F30913E0127E0231B04C0B595A795E2
:1009B000979587952A95D2F78C018091E70581302C
:1009C00009F4A2C02091400180E190E0821B9109CE
:1009D000980102C0359527958A95E2F7C9018115DE
:1009E00032E0930714F08FEF91E081154EEF9407FA
:1009F00014F480E09EEF9093FE058093FD054BCEAE
:100A0000081B190B4BCF86EC80937C0080917A00F9
:100A1000806480937A0020917800309179002F5F74
:100A20003140809107069091080690930A068093C2
:100A300009068091FF0590910006409101065091B2
:100A40000206480F591FCA01880F991F840F951F6E
:100A5000820F931F4091030650910406840F951F47
:100A60009595879590930806809307063093000626
:100A70002093FF0510CE87EC80937C0080917A0054
:100A8000806480937A002091780030917900809181
:100A9000F7059091F8054091BB055091BC05840F76
:100AA000951F9093BC058093BB054091B90550916B
:100AB000BA05840F951F9093BA058093B905959553
:100AC000879595958795959587959595879595950E
:100AD000879580589F4F8F3F910519F014F08FEF45
:100AE00090E097FD80E08093880080910D069091C2
:100AF0000E069093100680930F062F5F31403093BF
:100B00000E0620930D06C7CD8091410190914201C0
:100B1000811574E0970774F09C01232F330F330B7A
:100B200025952595A801429F8001439F100D529F56
:100B3000100D1124212F25952595312F330F330BBF
:100B400037FF03C031952195310941E050E0BA01EA
:100B5000621B730B4FEF5FE7481B590B6417750758
:100B600034F4860F971F9093420180934101181629
:100B700019060CF427CF81E090E090934201809316
:100B8000410120CF87EC80937C0080917A008064C3
:100B900080937A0020917800309179002F5F314066
:100BA0008091F7059091F8054091BB055091BC05E7
:100BB000840F951F9093BC058093BB054091B905A8
:100BC0005091BA05840F951F9093BA058093B9058B
:100BD00095958795959587959595879595958795FD
:100BE0009595879580589F4F8F3F910511F00CF098
:100BF0002AC197FD2BC180938800809113069091A4
:100C00001406909316068093150680910B0690911A
:100C10000C0640910D0650910E06480F591FCA014F
:100C2000880F991F840F951F820F931F40910F0605
:100C300050911006840F951F9595879590931406F3
:100C40008093130630930C0620930B0624CD8091DD
:100C5000C9059091CA05800F911FAC01440F551F23
:100C6000440F551F052E000C660B770B8091BF05B6
:100C70009091C0052091C7053091C805820F931F40
:100C800082959295907F9827807F9827092E000C57
:100C9000AA0BBB0B481B590B6A0B7B0B2091C105A0
:100CA0003091C2058091C5059091C605280F391F66
:100CB000220F331F22953295307F3227207F322733
:100CC000C901330FAA0BBB0B480F591F6A1F7B1FAB
:100CD0008091C3059091C4059C0100243695279509
:100CE0000794369527950794322F202D880F991F4A
:100CF00082959295907F9827807F982748CE809103
:100D0000BF059091C0052091C7053091C805820F9D
:100D1000931F880F991F880F991F092E000CAA0B8B
:100D2000BB0B2091C9053091CA05020F131F000F9C
:100D3000111F000F111F000F111F012E000C220B9D
:100D4000330B801B910BA20BB30B4091C10550914B
:100D5000C2052091C5053091C605420F531F0024DE
:100D6000569547950794569547950794542F402DCF
:100D7000052E000C660B770B840F951FA61FB71F5F
:100D80002091C3053091C4053695322F222737951F
:100D90002795A901330F660B770BFFCD8091C9050D
:100DA0009091CA05800F911FAC01440F551F052E6D
:100DB000000C660B770B70956095509541955F4FD1
:100DC0006F4F7F4F8091BF059091C0052091C7055F
:100DD0003091C805820F931F880F991F880F991FA4
:100DE000880F991F092E000CAA0BBB0B481B590B2F
:100DF0006A0B7B0B8091C1059091C2052091C505BE
:100E00003091C605820F931F880F991F8295929586
:100E1000907F9827807F9827092E000CAA0BBB0B88
:100E2000480F591F6A1F7B1F8091C3059091C4050D
:100E30009C010024369527950794369527950794AD
:100E4000322F202D9ECD8FEF90E0D3CE80E0D3CEF9
:100E500087EC80937C0080917A00806480937A0094
:100E600020917800309179002F5F31408091F70513
:100E70009091F8054091BB055091BC05840F951FDA
:100E80009093BC058093BB054091B9055091BA057C
:100E9000840F951F9093BA058093B9059595879512
:100EA000959587959595879595958795959587952A
:100EB00080589F4F8F3F910519F014F08FEF90E00D
:100EC00097FD80E08093880080910B0690910C063E
:100ED00040910D0650910E06480F591FCA01880F08
:100EE000991F840F951F820F931F40910F065091F9
:100EF0001006840F951F9595879530930C062093C7
:100F00000B06209111063091120640911306509164
:100F10001406420F531F9A01220F331F240F351F4F
:100F2000280F391F4091150650911606240F351FC2
:100F3000309318062093170690931206809311069B
:100F4000AACBCF93DF93D82F0E94D2020E94A30294
:100F500080E40E948002C0E0DC1729F080E00E945B
:100F60008002CF5FF9CFDF91CF910C947702EF929F
:100F7000FF920F931F93CF93DF93182FE92E062F25
:100F80000E94D2020E94A30280E00E948002F12E01
:100F9000C12FDE2D89910E9480028C2F8F1980171E
:100FA000C8F3DF91CF911F910F91FF90EF900C94B8
:100FB0007702CF93DF9300D01F92CDB7DEB7606B7F
:100FC0006983982F92959F7090619A838F708B831D
:100FD00063E0CE0101960E94B7070F900F900F902B
:100FE000DF91CF910895611164E06093BD06809315
:100FF000BE06880F880F880F8093BB066093BC06DF
:101000000C94D9075F926F927F928F929F92AF92CA
:10101000BF92CF92DF92EF92FF920F931F93CF93E5
:10102000DF93CDB7DEB728970FB6F894DEBF0FBEBB
:10103000CDBF7C0138E0B32E8E010F5F1F4F6E01D4
:1010400089E0C80ED11CF70181917F019091BB0608
:10105000882309F45BC08A30B1F39937A0F790EE8A
:10106000980F9A3608F080E2F8019B2D11929A951C
:10107000E9F78052990B23E0880F991F2A95E1F731
:10108000D80130E020E0875D9E4FFC01E20FF31FA6
:10109000E491ED932F5F3F4F28303105B1F7552490
:1010A0005394A12C852C912C880C991C3801F301A8
:1010B00081913F01982F952160E009F06FE090E069
:1010C00088219921892B09F0606F80E40E94F70242
:1010D000C614D70461F7F3E0AF1651F0550C550C68
:1010E0006091BC066F5F6A0D8091BB060E94D907B4
:1010F000A39484E0A812D6CF8091BE068F5F809320
:10110000BE066091BD060E94F3079DCF80E8891B53
:101110000E94A10711E000E86091BC06610F809178
:10112000BB060E94D9078091BB06902F981B892F80
:101130000E94A1071F5F143079F728960FB6F89424
:10114000DEBF0FBECDBFDF91CF911F910F91FF90FA
:10115000EF90DF90CF90BF90AF909F908F907F9057
:101160006F905F900895CF93DF93C82F8111C4E0F3
:101170006C2F80E00E94F30780E80E94A107D1E075
:101180006091BC066D0F8091BB060E94D90780E874
:101190000E94A107DF5FD43099F76C2F80E0DF91C8
:1011A000CF910C94F307CF93DF93EB01682F80E08E
:1011B0000E94F307CE01DF91CF910C940208CF93E8
:1011C00060E080E00E94F30780E80E94A107C1E090
:1011D0006091BC066C0F8091BB060E94D90780E825
:1011E0000E94A107CF5FC83099F760E080E0CF91FF
:1011F0000C94F30784E98093BC008091BC0084FDCB
:10120000FCCF80E00895CF938093BB0084E8809367
:10121000BC008091BC0087FFFCCF8091B900887F23
:10122000C0E0883251F0C091B900C87F8091B90008
:10123000887F803329F40E94FA088C2FCF9108957B
:101240001092BC0084E48093BC00F7CFCF9380EC75
:101250008093BB0084E88093BC008091BC0087FF32
:10126000FCCF8091B900887F8831E9F08091B90086
:10127000887F8034C1F0C091B900C87F8091B900E7
:10128000887F803269F08091B900887F883441F08E
:101290001092BC0084E48093BC008C2FCF91089501
:1012A0000E94FA08FACFC0E0F8CF84EA8093BC002D
:1012B0008091BC0087FFFCCF8091B900887F883087
:1012C000B9F08091B900887F803191F08091B900A8
:1012D000887F883349F48091B900887F1092BC00E0
:1012E00094E49093BC0008958091B900887F08959C
:1012F00080E00895CF93DF93D82FC62F0E94550921
:101300000E9426098D2F0E9403098C2F0E94030939
:10131000DF91CF910C94FA082F923F924F925F92F7
:101320006F927F928F929F92AF92BF92CF92DF92F5
:10133000EF92FF920F931F93CF93DF93CDB7DEB75A
:1013400064970FB6F894DEBF0FBECDBF898B4801FE
:101350005901FB8AEA8ACC8ACB01BA01A90198011A
:101360000E94401C290119012430310509F4A8C04C
:101370009B01AC0160E070E080E090E000E10E9441
:10138000081DF9017501640100E010E098018986EB
:10139000DA86AB86FC860D871E872F87388B540133
:1013A0006701E12CF12C00E010E09F010E94AB1CD2
:1013B000A32FF42FE52F422F5A2F6F2F7E2FC12CF2
:1013C000D12C7601E394CB01BA0127E0660F771F99
:1013D000881F991F2A95D1F7A70196010E94401CEA
:1013E00042019694982C882497948794B12CA12C30
:1013F00002E0901AA108B108280D391D4A1D5B1D95
:101400001982CA82BC89A0E1BA9FF0011124842EFE
:101410008E2AE4E02E16310409F05BC0ECE08E2A3F
:101420008B823C832D8394E0CC0CDD1CEE1CFF1CD6
:101430009A95D1F7E82AEE827F8368870E94550942
:101440000E9426098989880F880F880F865D0E946F
:1014500003099E012F5F3F4F79016E0139E0C30EF2
:10146000D11CD7018D917D010E940309CE14DF04A8
:10147000C1F70E94FA08612F6295660F660F607CC3
:10148000B989B7FF28C060688B2F885E64960FB655
:10149000F894DEBF0FBECDBFDF91CF911F910F91AA
:1014A000FF90EF90DF90CF90BF90AF909F908F9084
:1014B0007F906F905F904F903F902F900C947A099F
:1014C00040E050E0BA0111E0C12CD12C7601C39468
:1014D0007ACFE0E0A4CF6F608989805F0E947A09AB
:1014E00021E01227212F30E0EA89FB89E49DA00149
:1014F000E59D500DF49D500D1124249FC001259FA2
:10150000900D349F900D11246AE570E00E94181C24
:1015100089898B55BBCF2F923F924F925F926F92EA
:101520007F928F929F92AF92BF92CF92DF92EF9273
:10153000FF920F931F93CF93DF93CDB7DEB72F9713
:101540000FB6F894DEBF0FBECDBF4B015C01242E59
:10155000598321E0821623EA920621EEA20621E1B8
:10156000B206A4F0842F952F63E070E00E94181C4F
:10157000262E7983C501B40123E030E040E050E03D
:101580000E94621C49015A01312C11C080E2881668
:1015900081EA980687E0A806B104B4F747E0880C12
:1015A000991CAA1CBB1C4A95D1F757E0352E90E830
:1015B000891693EC990699ECA90691E0B906CCF44A
:1015C0006091AF057091B0058091B1059091B20521
:1015D000A0EE8A16A7E69A06A5E3AA06B1040CF4C3
:1015E00042C124E0660F771F881F991F2A95D1F703
:1015F00046C16091AF057091B0058091B1059091A1
:10160000B20535E0660F771F881F991F3A95D1F70D
:10161000A50194010E94401C3F832E83B1E08B16EC
:10162000BBE39B06B8E5AB06B8E0BB060CF02EC1E9
:101630009E8190FF05C0AE81BF811196BF83AE83AE
:10164000AE81BF81A5019401285833414109510958
:101650000E94961C6B017C012091AF053091B00572
:101660004091B1055091B2054090AF055090B00542
:101670006090B1057090B2054A825B826C827D8277
:101680000E94401C29013A012E813F81A0E1B7E26E
:101690000E94871C6C0D7D1D8E1D9F1D2A813B8124
:1016A0004C815D810E94401C4216530664067506FB
:1016B00029F08E819F8102969F838E83AE81BF81A8
:1016C000A50194010E94961C2B013C010091AF05DD
:1016D0001091B0052091B1053091B205C12CF12CCB
:1016E000E12CBC01A2018EEF0E948C09C32C950154
:1016F0008401B301A20180E00E948C09E22CF980F0
:101700009501B301A20181E00E948C09F12CE12C2A
:101710009501B301A20182E00E948C093324219437
:101720000CF43094C301B201A50194010E94401C45
:10173000229EC001239E900D329E900D11246AE5D9
:1017400070E00E942C1C8091B7059091B805861717
:10175000970741F07093B8056093B70560EA81EB95
:101760000E947A096CEF83E00E947A0980929C05BE
:1017700090929D05A0929E05B0929F059E819093A8
:10178000A0052091AF053091B0054091B105509171
:10179000B205C301B2010E94401C24503109410925
:1017A0005E4F3695322F2227379527953093A20525
:1017B0002093A1052091AF053091B0054091B1056E
:1017C0005091B205C090AF05D090B005E090B10542
:1017D000F090B205C301B2010E94401C2B013C01F4
:1017E000812C912C5401688759868A877B868C8648
:1017F0009D86AE86BF869B01AC0160E070E080E014
:1018000090E007E10E94081D2A8339835601670191
:10181000E12CF12C00E010E02A8139810E94AB1C00
:10182000C901DA018093A3059093A405A093A505AF
:10183000B093A6052F960FB6F894DEBF0FBECDBFAE
:10184000DF91CF911F910F91FF90EF90DF90CF909C
:10185000BF90AF909F908F907F906F905F904F90D0
:101860003F902F9008952091AF053091B0054091A1
:10187000B1055091B205A7E0B0E00E94961CA50109
:1018800094010E94401C3F832E83D2CE84E090E0DE
:101890009F838E83CDCEAF92BF92CF92DF92EF9295
:1018A000FF920F931F93CF93DF936C017B018B010A
:1018B000040F151FEB015E01AE18BF08C017D1075A
:1018C00059F06991D601ED91FC910190F081E02DE4
:1018D000C6010995892B79F7C501DF91CF911F9139
:1018E0000F91FF90EF90DF90CF90BF90AF90089551
:1018F000FC01538D448D252F30E0842F90E0821B16
:10190000930B541710F0CF96089501970895FC019A
:10191000918D828D981761F0A28DAE0FBF2FB11DF2
:101920005D968C91928D9F5F9F73928F90E008954A
:101930008FEF9FEF0895FC01918D828D981731F004
:10194000828DE80FF11D858D90E008958FEF9FEF58
:101950000895FC01918D228D892F90E0805C9F4F2E
:10196000821B91098F73992708958AE196E00E945E
:10197000A90C21E0892B09F420E0822F0895FC01B5
:10198000A48DA80FB92FB11DA35ABF4F2C91848DE0
:1019900090E001968F739927848FA689B7892C933D
:1019A000A089B1898C91837080648C93938D848D90
:1019B000981306C00288F389E02D80818F7D808393
:1019C0000895EF92FF920F931F93CF93DF93EC0153
:1019D00081E0888F9B8D8C8D98131AC0E889F989D6
:1019E000808185FF15C09FB7F894EE89FF896083D9
:1019F000E889F98980818370806480839FBF81E05A
:101A000090E0DF91CF911F910F91FF90EF9008959B
:101A1000F62E0B8D10E00F5F1F4F0F731127E02E76
:101A20008C8D8E110CC00FB607FCFACFE889F989AE
:101A3000808185FFF5CFCE010E94BF0CF1CFEB8DE9
:101A4000EC0FFD2FF11DE35AFF4FF0829FB7F89482
:101A50000B8FEA89FB8980818062CFCFCF93DF93A0
:101A6000EC01888D8823B9F0AA89BB89E889F989B6
:101A70008C9185FD03C0808186FD0DC00FB607FCEB
:101A8000F7CF8C9185FFF2CF808185FFEDCFCE011E
:101A90000E94BF0CE9CFDF91CF91089580E090E0E4
:101AA000892B29F00E94B50C81110E94000080E072
:101AB00090E0892B49F080E090E0892B29F00E948A
:101AC000000081110C940000089582508D3008F0C0
:101AD0003EC0E82FF0E0E159F24F0C94811CA40DB8
:101AE000A80D7C0D820DA70DA70D860D8C0D900DF8
:101AF000960DA70D9A0DA00D809180008F77809391
:101B000080000895809180008F7DF9CF8091B00092
:101B10008F778093B00008958091B0008F7DF9CFCA
:101B2000809190008F77809390000895809190002D
:101B30008F7DF9CF8091A0008F778093A0000895CA
:101B40008091A0008F7DF9CF84B58F7784BD0895F3
:101B500084B58F7DFBCFCF93DF93282F30E0F90141
:101B6000E25FFE4F8491F901ED50FF4FD491F901EE
:101B7000E852FF4FC491CC2391F081110E94650D72
:101B8000EC2FF0E0EE0FFF1FE453FF4FA591B4914F
:101B90008FB7F894EC91D095DE23DC938FBFDF9163
:101BA000CF910895CF93DF93282F30E0F901E25FC2
:101BB000FE4F8491F901ED50FF4FD491F901E852A5
:101BC000FF4FC491CC23A1F081110E94650DEC2F31
:101BD000F0E0EE0FFF1FE054FF4FA591B491EC91A0
:101BE000ED2381E090E009F480E0DF91CF9108954A
:101BF00080E090E0FACFCF93DF9390E0FC01ED50CE
:101C0000FF4F249188529F4FFC0184918823C9F093
:101C100090E0880F991FFC01EC54FF4FA591B491FF
:101C2000FC01E453FF4FC591D49161110DC09FB7E2
:101C3000F8948C91209582238C9388812823288383
:101C40009FBFDF91CF910895623051F49FB7F89410
:101C50003C91822F809583238C93E8812E2BEFCFAC
:101C60008FB7F894EC912E2B2C938FBFEACFEEE731
:101C7000F0E08081806C808384E880937A00109209
:101C80007B00E0E8F0E092E0908389E180938100BE
:101C90008FEF8093860010928700A6EBB0E08C91C6
:101CA0008F7D8C931092B2009093B00084E080936B
:101CB000B1008093B300A0E7B0E08C9182608C9378
:101CC00080818068808361E089E00C94FB0DCF9275
:101CD000DF92EF92FF92CF93C0904301D0904401E6
:101CE000E0904501F090460184E1C1E0C80F6C2D01
:101CF0000E946402CD2CDE2CEF2CFF248C2FC831E7
:101D0000A1F760913C018EE10E9464026091400164
:101D10008FE10E9464026091E80580E20E94640203
:101D200060913B0181E20E94640260913F0182E286
:101D30000E9464026091850583E20E9464026091C2
:101D40003E0184E20E9464026091E70585E20E9400
:101D500064026091840586E2CF91FF90EF90DF905E
:101D6000CF900C9464020F931F93CF93DF93D82FDF
:101D7000C62F8A0181E00E94B30865E372E0DB3080
:101D800011F10115110551F580E2809375058093DD
:101D90007605CC23F9F08093770522E03AE0A22F74
:101DA000B0E0AB58BA4F8C2F632F0E940C1CE92F68
:101DB000F0E0E15CFD4F90819C93C82F2150811190
:101DC000EECF65E775E081E0DF91CF911F910F9134
:101DD0000C94D30880E380937705F3CF8C2F90E0A9
:101DE000880F991F800F911FFC0160817181EBCFDB
:101DF000CF93DF936091950570919305A4E9B1E0CD
:101E000040E090E0C0E2DEE35D91292F30E05C37F6
:101E100089F09F5F2F593A4FF90150835111F4CF48
:101E200080E00E94B30861E675E080E0DF91CF9129
:101E30000C94D308623069F47B3059F02F593A4F33
:101E4000F901C083E1E0E90FF0E09E5FEF59FA4F3E
:101E5000D083E92FF0E0EF59FA4F108221E0841788
:101E600011F090E020E04F5F222371F2D9CFCF92A2
:101E7000DF92EF92FF920F931F93CF93DF93182F70
:101E80006B017A01C22FFB01D081809195058130D1
:101E900059F08230C9F0DF91CF911F910F91FF90DF
:101EA000EF90DF90CF900895812F0E94F80EA70148
:101EB0006D2F812FDF91CF911F910F91FF90EF90A8
:101EC000DF90CF900C94B30E812F0E94F80E60919A
:101ED0009405062E000C770B6D0F711DC6171706A3
:101EE00009F02CF4C62F061717060CF4C02F1B3070
:101EF00021F481E080939505C0E010929405F601ED
:101F0000C083A7016C2FD5CF80918F05909190054C
:101F1000A0919105B091920580938A0590938B05CD
:101F2000A0938C05B0938D0580913D01811107C070
:101F300081E080933D016FEA80E00C94F702089500
:101F40008F929F92AF92BF92CF92DF92EF92FF92C9
:101F5000C0908F05D0909005E0909105F09092058B
:101F60004C01B12CA12C40918F05509190056091AE
:101F70009105709192054C195D096E097F0948150C
:101F800059056A057B0530F424E230E0215031091F
:101F900051F3FCCFC29751F4FF90EF90DF90CF90B8
:101FA000BF90AF909F908F900C94840FFF90EF9014
:101FB000DF90CF90BF90AF909F908F900895EF9259
:101FC000FF920F931F93CF93DF9300D000D000D0E8
:101FD000CDB7DEB78C0180E00E94B3088AE492E0BE
:101FE0000E94020860E08BE00E94F307C80126E02F
:101FF000E4E5F2E0DE01119601900D922A95E1F7F9
:1020000024E03AE0E32EF12C0097F1F449813A8183
:102010002B819C815E818D81403241F149833A83DD
:102020002B839C838D83CE0101960E940208269605
:102030000FB6F894DEBF0FBECDBFDF91CF911F91D9
:102040000F91FF90EF90089501E010E00C0F1D1F1D
:10205000020F111DB7010E94181CFC01E15CFD4F2D
:102060008081F8018083CB012150CECF432F322FC6
:10207000292F982F852FD0CF8F929F92AF92BF920A
:10208000EF92FF920F931F93CF93DF93CDB7DEB7FD
:102090002F970FB6F894DEBF0FBECDBF81E00E9430
:1020A000B3086091AF057091B0058091B105909132
:1020B000B2052FE0E7E4F1E0DE01119601900D9208
:1020C0002A95E1F719E00CE23AE0832E912CA12C3D
:1020D000B12C611571058105910529F1E12FF0E021
:1020E0002FEF210F312F3B7F323041F441E050E0A0
:1020F0004C0F5D1FE40FF51F0083122FEE24E394B5
:10210000F12CEC0EFD1EE10EF11CA50194010E94C4
:10211000401C615C7D4FFB018081F7018083B90128
:10212000CA011150D6CF61E080E00E94F307CE01D2
:1021300001960E9402082F960FB6F894DEBF0FBEDC
:10214000CDBFDF91CF911F910F91FF90EF90BF9086
:10215000AF909F908F900895AC0120E091E0920F96
:10216000FA01E20FF11D808181110FC090E0FB01A7
:10217000E90FF11D3081E92FE20FE40FF52FF11D7A
:10218000332329F09F5F3083F2CF292FE7CF1082CE
:102190000895E0E0DC01AE0FB11DEF5F2C9121113D
:1021A000F9CF6C93E80FF92FF11D10820895FC010F
:1021B0009081DB018C91981305C081E021811196FB
:1021C0009C91291380E008958AE196E00E94A90C71
:1021D000892BD1F38AE196E00E94870C8B33A1F71B
:1021E00008958AE196E00E94A90C892BD1F38AE137
:1021F00096E00E94870C08952091860580918705BE
:102200009091880540E1249F90011124880F822B32
:10221000892B8093860580918605833271F0823305
:1022200091F080918E05811104C080913D01811152
:1022300002C0109294050C94840F809194058F5FD6
:1022400080939405EECF809194058150F9CFFC01E5
:1022500001900020E9F73197AF01481B590BBC01F1
:102260008AE196E00C944B0C8F929F92AF92BF92B2
:102270000F931F93CF93DF93CDB7DEB7A1970FB620
:10228000F894DEBF0FBECDBF19A2423008F44AE079
:102290008E010F5D1F4F842E912CB12CA12CA50116
:1022A00094010E94401CE62FB901CA01EA30F4F4FF
:1022B000E05DD801EE938D01232B242B252B79F79C
:1022C00090E080E0109719F0CD010E942711A196AF
:1022D0000FB6F894DEBF0FBECDBFDF91CF911F9137
:1022E0000F91BF90AF909F908F900895E95CE1CFE0
:1022F000CF92DF92EF92FF92CF93DF936B017C013D
:102300006DE28AE196E00E94E10CEC0166277727F6
:10231000CB016C197D098E099F094AE00E94341196
:102320008C0F9D1FDF91CF91FF90EF90DF90CF90AA
:1023300008950C942711CF92DF92EF92FF92CF93E2
:10234000C82F0E94840F0E94DF08CC2309F455C0D7
:102350008AE592E00E94020885E692E00E949911C7
:10236000C12CD12C760187E1CFEFC80F0E946E02FD
:10237000C82AC33121F0FE2CED2CDC2CCC248C2F70
:10238000C33191F7C0924301D0924401E0924501DC
:10239000F09246018EE10E946E0280933C018FE133
:1023A0000E946E028093400180E20E946E02809340
:1023B000E80581E20E946E0280933B0182E20E9466
:1023C0006E0280933F0183E20E946E028093850536
:1023D00084E20E946E0280933E0185E20E946E02BA
:1023E0008093E70586E20E946E0280938405CF9178
:1023F000FF90EF90DF90CF90089582E792E00E94E7
:10240000020880E892E00E949911109289051092CA
:10241000950510928E05109293051092B3051092B7
:10242000B4051092B5051092B60580EC9CEFABE9AF
:10243000B1E08093AF059093B005A093B105B09340
:10244000B20580E296E2A7EDB0E08093B7069093E4
:10245000B806A093B906B093BA068093430190934F
:102460004401A0934501B093460184E080933C0170
:102470009AE0909340011092E80580933B0193E02D
:1024800090933F011092850580933E011092E705DD
:10249000CF91FF90EF90DF90CF900C94670ECF9389
:1024A000DF93D0E0C0E0009719F00E942711EC0103
:1024B0008FE692E00E9427118C0F9D1FDF91CF9134
:1024C00008956AE08AE196E00E94E10C8FE692E0CE
:1024D0000E94271185E392E00E944F1280E992E06A
:1024E0000C944F128091430190914401A0914501B9
:1024F000B0914601803826E9920728E9A207B10584
:1025000084F088E093E00E949911609143017091FA
:102510004401809145019091460197FF0DC00C94B4
:10252000781180349244AF40B1051CF087E093E00D
:10253000EACF86E093E0E7CF4AE00C943411809133
:102540003C01843091F118F5823049F1833051F12A
:1025500061E089E00E94F3078091BB0667E08E5F2F
:102560000E94D9070E94D2020E94A30280E40E9426
:1025700080028FEF0E9480028FEF0E9480028FEF17
:102580000E9480028FEF0E9480020C9477028630B6
:1025900091F070F08730E1F661E081E0DBCF61E03F
:1025A00088E0D8CF61E087E0D5CF61E085E0D2CF89
:1025B00061E084E0CFCF61E083E0CCCF8F929F9247
:1025C000AF92BF92CF92DF92EF92FF920F931F9341
:1025D000CF93DF93882349F1A0919405E0913C01CA
:1025E00024E0E29FF0011124ED5FFD4F2081318155
:1025F000428153810A2E000CBB0B0E94A11C00914A
:102600004301109144012091450130914601DC01C4
:10261000CB01800F911FA21FB31F809343019093A2
:102620004401A0934501B0934601C0904301D0906E
:102630004401E0904501F09046018091E805823028
:1026400009F049C0E0918405F0E0EF5FFD4F808123
:10265000A7019601280F311D411D511DCA01B90165
:102660004AE550E00E948B0A10929405C701B6011A
:10267000E9E7F5E023E835E040E241932E173F0714
:10268000E1F7C9E0DCE22AE0822E912CA12CB12CEA
:10269000611571058105910519F1EC2FF0E02FEF1F
:1026A0002C0F3C2F3B7F323021F4E758FA4FD08378
:1026B000C22F0C2F10E007581A4FA50194010E9459
:1026C000401C615C7D4FFB018081F8018083B90172
:1026D000CA01C150DDCF4AE550E0C701B601C2CF03
:1026E0001092830569E775E081E00E94D308C092EB
:1026F000B706D092B806E092B906F092BA06DF911A
:10270000CF911F910F91FF90EF90DF90CF90BF90EE
:10271000AF909F908F900C949F12CF93DF93CDB783
:10272000DEB764970FB6F894DEBF0FBECDBF0E9430
:10273000DF08E091E805F0E0EE0FFF1FED5DFE4FD2
:102740002081318180E0E82FF0E0D901AE0FBF1F7A
:102750009C9141E050E04C0F5D1FE40FF51F992361
:1027600019F08F5F9083EFCF10826BE972E0CE019A
:1027700001960E94AC10E0913B01F0E0EE0FFF1FCC
:10278000E75DFE4F60817181CE0101960E94AC1021
:10279000BE016F5F7F4F80E00E94D30880E00E94FF
:1027A000DE1264960FB6F894DEBF0FBECDBFDF9188
:1027B000CF9108951092950510929405E0913B01F8
:1027C00080910001E817E1F0E093000184E0E89FC8
:1027D000F0011124E059FE4F80819181A281B381E3
:1027E0008093430190934401A0934501B093460127
:1027F0008093B7069093B806A093B906B093BA0633
:102800000C948D13CF92DF92EF92FF920F93CF93A0
:10281000DF938C3008F05DC0E82FF0E0EE5EFB4EF9
:102820000C94811C1E1428143014381440144814BD
:102830005014581460145E159915C7150CE025E066
:1028400050E040E060E471E080E00E94370F41C05A
:1028500002E020E043E251E068EE75E081E0F5CF70
:1028600008E020E049E251E06BE371E082E0EDCF67
:1028700003E020E04BE151E06FE371E083E0E5CF5E
:1028800001E020E047E151E065E875E084E0DDCF5C
:1028900006E020E049E051E06EE371E085E0D5CF4D
:1028A00001E020E045E051E067EE75E086E0CDCF45
:1028B00001E020E041E051E064E875E087E0C5CF49
:1028C00088E00E94F80E80919505813051F08230A9
:1028D00091F0DF91CF910F91FF90EF90DF90CF902B
:1028E000089581E0DF91CF910F91FF90EF90DF90FD
:1028F000CF900C94B30881E090E00E94DF0F0E941B
:102900003C10C1E0D0E084E00E94D20D892B09F494
:1029100071C083E00E94D20D892B01F5CA30D10528
:1029200041F0C436D105A1F02197A9F4CAE0D0E066
:1029300002C0C4E6D0E0CE010E94DF0F83E00E9417
:10294000D20D892B59F482E390E00E94A00FF6CFBC
:10295000C8EED3E0F0CFC1E0D0E0EDCF8091940598
:10296000882389F28091940518160CF441C08827B9
:1029700099278C1B9D0B4091AF055091B00560913C
:10298000B1057091B205092E000CAA0BBB0B481BB8
:10299000590B6A0B7B0B4093AF055093B0056093C6
:1029A000B1057093B2054091B3055091B4056091A3
:1029B000B5057091B605840F951FA61FB71F8093AC
:1029C000B3059093B405A093B505B093B6050E94E6
:1029D0003C101092940560914301709144018091E4
:1029E0004501909146014AE550E00E948B0A8BCF49
:1029F000CE01C1CF84E00E94D20D892B29F482E35D
:102A000090E00E94A00FF6CF0E94DF086FE972E00D
:102A100080E00E94D30861EB72E081E00E94D3085D
:102A2000C1E084E00E94D20D892B91F08091940541
:102A30008823B9F31092940581E00E94B308CC2357
:102A400051F365EB72E081E00E94D308C0E0E9CF6A
:102A50000E94DF0868EB72E080E00E94D30864ED1A
:102A600072E0CC23B9F0C090B305D090B405E090EB
:102A7000B505F090B6058AE0C1E0C80F6C2D0E9444
:102A80006402CD2CDE2CEF2CFF248C2FCE30A1F74E
:102A900064EC72E081E00E94D30880ED97E00E9430
:102AA000A00F0E94DA1384E00E94D20D892B09F056
:102AB00010CF82E390E00E94A00FF5CF89E00E9442
:102AC000F80E80919505813009F40BCF823009F022
:102AD00000CF84E00E94D20D892BC1F083E00E94D8
:102AE000D20D892BB1F76EED72E081E00E94D30820
:102AF0000E94670E88EE93E00E94A00F83E00E9480
:102B0000D20D892B19F482E390E0F6CF84E00E9485
:102B1000D20D892B29F482E390E00E94A00FF6CF1A
:102B2000DF91CF910F91FF90EF90DF90CF900C94B9
:102B3000DA138AE00E94F80E80919505813009F43D
:102B4000D0CE823009F0C5CE84E00E94D20D892B10
:102B5000A1F083E00E94D20D892BB1F780E00E94A2
:102B60009B1188EE93E00E94A00F83E00E94D20D9B
:102B7000892B19F482E390E0F6CF84E00E94D20D15
:102B8000892B71F682E390E00E94A00FF6CF01E05E
:102B900020E050E040E070E060E08BE056CE1F9215
:102BA0000F920FB60F9211244F935F936F937F9301
:102BB0008F939F93409198055091990560919A0544
:102BC00070919B058091970590919605943019F529
:102BD000109296059091960590FD21C08A598D37E7
:102BE00028F08D574F5F5F4F6F4F7F4F8093970552
:102BF000409398055093990560939A0570939B05AF
:102C00009F918F917F916F915F914F910F900FBE28
:102C10000F901F9018959F5F90939605DBCF895971
:102C2000DECF1F920F920FB60F9211242F933F9376
:102C30004F935F936F937F938F939F93AF93BF93C4
:102C4000EF93FF938AE196E00E94BF0CFF91EF9112
:102C5000BF91AF919F918F917F916F915F914F91B4
:102C60003F912F910F900FBE0F901F9018951F92BC
:102C70000F920FB60F9211242F938F939F93EF9380
:102C8000FF93E0912A06F0912B068081E0913006B7
:102C9000F091310682FD1BC09081809133068F5FD9
:102CA0008F7320913406821741F0E0913306F0E0F3
:102CB000E65EF94F958F80933306FF91EF919F91D8
:102CC0008F912F910F900FBE0F901F9018958081BC
:102CD000F4CF1F920F920FB60F9211242F933F93B0
:102CE0004F935F936F937F938F939F93AF93BF9314
:102CF000EF93FF930E940903FF91EF91BF91AF9172
:102D00009F918F917F916F915F914F913F912F9103
:102D10000F900FBE0F901F9018951F920F920FB635
:102D20000F9211242F933F934F935F936F937F9351
:102D30008F939F93AF93BF93EF93FF9388E00E948D
:102D4000D20D809387050E94FC10FF91EF91BF91F7
:102D5000AF919F918F917F916F915F914F913F9133
:102D60002F910F900FBE0F901F9018951F920F92EA
:102D70000FB60F9211242F933F934F935F936F934E
:102D80007F938F939F93AF93BF93EF93FF9387E0CE
:102D90000E94D20D809388050E94FC10FF91EF9154
:102DA000BF91AF919F918F917F916F915F914F9163
:102DB0003F912F910F900FBE0F901F9018951F926B
:102DC0000F920FB60F9211248F939F93AF93BF93DF
:102DD00080918F0590919005A0919105B0919205F9
:102DE0000196A11DB11D80938F0590939005A0932E
:102DF0009105B0939205BF91AF919F918F910F90E4
:102E00000FBE0F901F901895EAE1F6E01382128230
:102E100088EE93E0A0E0B0E084839583A683B78337
:102E200087E292E09183808385EC90E095878487A8
:102E300084EC90E09787868780EC90E0918B808B84
:102E400081EC90E0938B828B82EC90E0958B848B6D
:102E500086EC90E0978B868B118E128E138E148EDB
:102E6000EBEBF6E081E08483158216828AE0E2ECE7
:102E7000F6E0DF01982F1D929A95E9F7ECECF6E069
:102E8000DF011D928A95E9F789E1E7E5F1E0A6ED1A
:102E9000B6E001900D928A95E1F7809143019091FF
:102EA0004401A0914501B09146018093B7069093EB
:102EB000B806A093B906B093BA060895CF93DF93EE
:102EC000CDB7DEB769970FB6F894DEBF0FBECDBFA2
:102ED000789484B5836084BD85B5836085BD809119
:102EE0006E00816080936E0012E0109381008091EB
:102EF0008100816080938100809180008160809357
:102F000080008091B10084608093B1008091B00016
:102F100081608093B00080919100836080939100E4
:102F2000809190008160809390008091A1008360E7
:102F30008093A1008091A00081608093A00087E829
:102F400080937A001092C10014BD89EF87BD83E0A1
:102F500085BD10936E0085E00E94AB0D89E00E9454
:102F6000AB0D61E085E00E94FB0D61E089E00E940D
:102F7000FB0D60E084E10E94FB0D60E085E10E94B2
:102F8000FB0D62E083E00E94FB0D62E084E00E94A2
:102F9000FB0D62E086E00E94FB0D62E087E00E948C
:102FA000FB0D62E088E00E94FB0DE0912A06F091A3
:102FB0002B061083E0912606F09127061082E091FF
:102FC0002806F091290695E1908310923206E0914F
:102FD0002E06F0912F0686E08083E0912C06F0917A
:102FE0002D06808188698083E0912C06F0912D0662
:102FF00080818F7D80831093C0001092C5009093D4
:10300000C40081E080936B0080E880936D0085E0D0
:103010008093680087E00E94D20D8093880588E045
:103020000E94D20D80938705809187059091880535
:10303000880F892B80938605789460E082E10E9456
:10304000FB0D60E083E10E94FB0D00E10093B800FE
:103050001092B90014E41093BC0060E087E10E9474
:10306000FB0D60E088E10E94FB0D0093D8001092F8
:10307000D9001093DC0069E186ED96E00E94B70765
:103080008DE291E0019709F0FDCF0E94DF0881E019
:1030900080933D016FEA80E00E94F702C12CD12CA1
:1030A00076018DE01FEF180F0E946E02C82A1930BA
:1030B00021F0FE2CED2CDC2CCC24812F193091F743
:1030C000D701C6018059984EAF4FBF4F813E9E42F7
:1030D000A105B10590F11092B3051092B4051092BC
:1030E000B5051092B60580EC9CEFABE9B1E080939A
:1030F000AF059093B005A093B105B093B2051092BF
:10310000B8051092B7050E94370E83E00E94D20DD9
:103110008C0184E00E94D20D012B11F0892B41F526
:1031200080E00E949B1183E00E94D20D892BB1F4B4
:1031300082E390E00E94A00FF6CFC092B305D09238
:10314000B405E092B505F092B60580EC9CEFABE9D2
:10315000B1E08C199D09AE09BF09C9CF84E00E9476
:10316000D20D892B41F482E390E00E94A00FF6CFAC
:1031700081E00E949B110E94DF086CEE72E080E00B
:103180000E94D30865E372E081E00E94D3080E94A8
:10319000611280ED97E00E94A00F0E948D13C090F5
:1031A000E804D090E904E090EA041E0183E0280ED0
:1031B000311CFE013496F98FE88F32E0F32E8AE15C
:1031C00096E00E94A90C892B21F1CD8ADE8AEF8A34
:1031D0001A821982F10122E111922A95E9F710E091
:1031E00000E08AE196E00E94A90C892B69F08AE14F
:1031F00096E00E94870C782E8FEB870D8A3308F4B7
:103200003EC0C8018C01EDCFC801019601301440C9
:10321000C8F38091B7069091B806A091B906B09115
:10322000BA0640914301509144016091450170916B
:103230004601481759076A077B0751F080934301FD
:1032400090934401A0934501B09346010E948D13D1
:1032500040908F0550909005609091057090920578
:1032600000913D0101118EC183E00E94D20D892B96
:1032700009F073C182E390E00E94A00FF5CFFAE756
:103280007F1639F27D8A0E94F1108E8B9FE9970D8F
:103290009A3118F490EE970D9D8B9FE9980F9A3113
:1032A00010F480528E8B69EF72E0CE0145960E9439
:1032B000D710882319F10E94E41089EF92E00E9450
:1032C00099110E9472128CEF92E00E94991160E3B2
:1032D0008AE196E00E94E10C8CE093E00E94991153
:1032E00069E473E0CE0145960E94D710882309F463
:1032F000B6C08CE493E00E9499118BCF66E173E035
:10330000CE0145960E94D710882329F00E94E41030
:1033100089E193E0E3CF60E273E0CE0145960E943D
:10332000D710882309F448C00E94F11090ED980F3F
:103330009A30C8F5682FCE0101960E94C9101AE094
:103340000E94F110682FCE0101960E94C910115001
:10335000B9F7FE013C96412C512C3201812C912C65
:1033600054018394A291A053B0E0A50194010E945E
:10337000961C460E571E681E791EAAE0B0E00E94F9
:10338000961C4B015C01888D998D8E179F0751F714
:103390004092B7065092B8066092B9067092BA068B
:1033A0000E94E4109DCF80E293E00E9499110E9458
:1033B000721284E193E092CF63E273E0CE0145960E
:1033C0000E94D710882341F00E94F11080538A3068
:1033D00038F386E293E082CF6BE273E0CE0145964C
:1033E0000E94D710882341F00E94F11080538A3048
:1033F000B8F28EE293E072CF63E373E0CE014596BC
:103400000E94D710882341F00E94F11080538A3027
:1034100038F286E393E062CF6BE373E0CE0145962A
:103420000E94D710882349F00E94F11080538A30FF
:1034300008F4B6CF8EE393E051CF63E473E0CE019E
:1034400045960E94D7108111ABCF66E473E0CE01A0
:1034500045960E94D710882309F442CFA1CF62EA93
:1034600074E0CE0145960E94D710811142CF65EAE3
:1034700074E0CE0145960E94D7108823C1F081E008
:1034800090918905911180E08093890588EA94E004
:103490000E9499116091890570E090E080E04AE017
:1034A0000E94341181EA94E00E944F12B2CE6FEA7A
:1034B00074E0CE0145960E94D7108823B9F10E948E
:1034C000611282EB94E00E949911E0913B01F0E0DF
:1034D000EE0FFF1FE75DFE4F808191810E944F122A
:1034E0008AEB94E00E94991160914301709144012C
:1034F000809145019091460197FF14C00E94781178
:103500008FE692E00E94991182EC94E00E9499115A
:10351000E091E805F0E0EE0FFF1FED5DFE4F8081CA
:103520009181C2CF4AE00E943411EACF6AEC74E084
:10353000CE0145960E94D710882321F080E00E949A
:103540009B1167CE6DEC74E0CE0145960E94D710BA
:10355000882309F45ECE81E0F2CF84E00E94D20D90
:10356000892B29F482E390E00E94A00FF6CF86E039
:103570000E94D20D892B09F0D4C082E390E00E9412
:10358000A00FF5CF1091950583E00E94D20D892BF5
:1035900071F5113029F128F0123029F110929505BA
:1035A00010C081E0809395050E94DF0867E080E00D
:1035B0000E94D90780E80E94A10710928E05109200
:1035C0009405809193050E94021483E00E94D20D1D
:1035D000892B09F0A6C082E390E00E94A00FF5CFEE
:1035E000F0929505EECF81E080939505EACF84E0D7
:1035F0000E94D20D892B61F5112369F00E94DA1324
:1036000084E00E94D20D892B09F08BC082E390E008
:103610000E94A00FF5CF84E00E94D20D892B09F003
:103620006FC080918F0590919005A0919105B09108
:10363000920584199509A609B70989359240A10513
:10364000B10508F095C082E390E00E94A00FE3CF9F
:1036500086E00E94D20D892BF9F4111162C086E038
:103660000E94D20D892B09F09BC080918F0590910B
:103670009005A0919105B091920584199509A6092C
:10368000B70989359240A105B10508F0AAC082E3C7
:1036900090E00E94A00FE3CF80919405882341F130
:1036A000111126C081E00E94DE12013009F05DC0D8
:1036B00080918F0590919005A0919105B091920510
:1036C00040918A0550918B0560918C0570918D0514
:1036D000841B950BA60BB70B81369A4EA105B1053D
:1036E00000F110923D016EEA80E00E94F70219C0DD
:1036F0000130B9F4DDCF8C3024F11092930523C052
:103700000E949F1280913C01815009F487E08093D0
:103710003C010E949F1282E390E00E94A00F0E9451
:10372000DA13809195058130A1F480919405882366
:10373000E1F08091940590919305890F87FFDBCF8D
:103740008BE08093930510929405809193050E94DD
:10375000021480919505823041F48091940588236C
:1037600021F0809193050E9402140E944E0D27CDF6
:103770000E94DF08F092950582E00E94021484E026
:103780000E94D20D892B59F680919405882319F057
:1037900082E00E94021482E390E00E94A00FEFCF2B
:1037A00010918E0581E0111180E080938E050E94BA
:1037B000DF0867E080E00E94D90780E80E94A10747
:1037C00060EE74E080E00E94D30867ED74E01111B0
:1037D00002C060ED74E081E00E94D30888EE93E0BF
:1037E0009CCF0E94DF08F092950580E00E940214B1
:1037F00010928E0586E00E94D20D892B09F08FCFA2
:1038000080919405882319F080E00E94021482E3DD
:1038100090E00E94A00FEECF991B79E004C0991FA1
:10382000961708F0961B881F7A95C9F7809508951A
:10383000AA1BBB1B51E107C0AA1FBB1FA617B707D6
:1038400010F0A61BB70B881F991F5A95A9F78095F2
:103850009095BC01CD01089597FB072E16F40094B6
:1038600007D077FD09D00E94181C07FC05D03EF454
:10387000909581959F4F0895709561957F4F08951C
:10388000A1E21A2EAA1BBB1BFD010DC0AA1FBB1F64
:10389000EE1FFF1FA217B307E407F50720F0A21BD6
:1038A000B30BE40BF50B661F771F881F991F1A9443
:1038B00069F760957095809590959B01AC01BD016D
:1038C000CF010895052E97FB1EF400940E94791CE9
:1038D00057FD07D00E94401C07FC03D04EF40C9407
:1038E000791C50954095309521953F4F4F4F5F4F34
:1038F000089590958095709561957F4F8F4F9F4F5C
:103900000895EE0FFF1F0590F491E02D0994A29FFA
:10391000B001B39FC001A39F700D811D1124911DA3
:10392000B29F700D811D1124911D08950E94871C66
:10393000A59F900DB49F900DA49F800D911D112403
:103940000895B7FF0C94961C0E94961C821B930B43
:103950000895689401C0E8948F929F92CF93DF936B
:103960000E94B71CDF91CF919F908F90089588247B
:103970009924F401E401B0E49F93AA279A158B04DB
:103980009C04ED05FE05CF05D007A10798F4AD2FE7
:10399000DC2FCF2FFE2FE92D982C892E982F872FE3
:1039A000762F652F542F432F322F2227B85031F70F
:1039B000BF9127C01B2EBF91BB27220F331F441F6F
:1039C000551F661F771F881F991F881C991CEE1FA3
:1039D000FF1FCC1FDD1FAA1FBB1F8A149B04EC0511
:1039E000FD05CE05DF05A007B10748F08A189B0842
:1039F000EC09FD09CE09DF09A00BB10B21601A9477
:103A0000E1F62EF49401AF01BE01CD01000C089542
:103A1000002E083090F0982F872F762F652F542F87
:103A2000432F322F22270850F4CF220F331F441F79
:103A3000551F661F771F881F991F0A95B2F7002D23
:103A400008956817790768F4FB01DC01E40FF51F9E
:103A5000A40FB51F02C002900E9241505040D8F7FB
:103A600008950C94331DFB01DC0102C001900D92FE
:0C3A700041505040D8F70895F894FFCF63
:103A7C0004EB04EF04F304F704FA04000506050C48
:103A8C000512051805F304F30418051D0522052776
:103A9C00052C053105350539053C0540054405481F
:103AAC00054C055005540558055C05040401040338
:103ABC000A00042026D700202020202020202020AF
:103ACC0020202020202000D580A83FD300408D143A
:103ADC002002A4A1C8DA128180DB40D9F1B0A6AFD4
:103AEC0008853600C8BD5100D0F06B00C0A99A0003
:103AFC0090C0D600202F140150904101382C7C012D
:103B0C001060AC01566F6C756D657C526164696FA9
:103B1C00204D6F64657C526164696F2042616E64F4
:103B2C007C46696C7465727C5278204174746E7C2E
:103B3C00446967204174746E7C4147437C43572031
:103B4C00546F6E657C43616C6962726174657C5301
:103B5C0061766520746F2045457C466163746F7295
:103B6C00792052657365747C56657273696F6E7CCF
:103B7C000058BC00000000010000000A00000064B6
:103B8C00000000E803000010270000A086010040A0
:103B9C00420F0000000000E10C4B0C780C2E0DA91C
:103BAC000C870C9B0C6866727820312E30410030EB
:103BBC003132333435363738390043616C20737405
:103BCC0065703D00202020203000534F4654205279
:103BDC004553455400536F66742052657365740DDC
:103BEC000A00464143544F52592052455345540004
:103BFC00466163746F72792052657365740D0A00A7
:103C0C0044656320322032303234002020200053AF
:103C1C006176652043616C6962726174696F6E3F95
:103C2C0000594553004E4F0043616C6962726174D8
:103C3C00696F6E00736176656420746F20656570C2
:103C4C00726F6D006E6F74207361766564007361C2
:103C5C0076696E6720656570726F6D0053534220F4
:103C6C0052656365697665720049460030303030C4
:103C7C00302B30303030303030303000323030306B
:103C8C00303030303B0049440049443031393B003E
:103C9C004641004D44004D44323B004149004149EE
:103CAC00303B005053005053313B00585400585493
:103CBC00303B005458005258004845000D0A202053
:103CCC004946202047202D2020726164696F2073A3
:103CDC0074617475730D0A20204944202047202DEF
:103CEC002020726164696F2049440D0A20204641EE
:103CFC00202047205320206672657175656E6379AC
:103D0C000D0A202041492020472053202061757442
:103D1C006F2D696E666F726D6174696F6E0D0A201E
:103D2C00204D4420204720532020726164696F206D
:103D3C006D6F64650D0A20205053202047205320BE
:103D4C0020706F7765722D6F6E207374617475734C
:103D5C000D0A202058542020472053202058495425
:103D6C00207374617475730D0A2020545820202D13
:103D7C00205320207472616E736D69740D0A2020BB
:103D8C00525820202D20532020726563656976657A
:103D9C000D0A0A20204845203D3E207072696E7441
:103DAC002068656C700D0A20204848203D3E20702C
:103DBC0072696E742068656C700D0A202044442072
:103DCC003D3E206465627567206F6E2F6F66660DD1
:103DDC000A20204949203D3E207072696E7420698A
:103DEC006E666F0D0A20204652203D3E20666163B0
:103DFC00746F72792072657365740D0A20205352AA
:103E0C00203D3E20736F66742072657365740D0AD5
:103E1C000A0048480044440044454255473D004987
:103E2C00490062616E64203D200066726571203D20
:103E3C0020006D6F6465203D2000465200535200F7
:103E4C004C6F636B656400556E6C6F636B656400DF
:103E5C00456E636F646572007A7A003630300037D5
:103E6C003030004F4646004F4E002D333664420032
:103E7C002D33306442002D32346442002D313864CD
:103E8C0042002D31326442002D366442003135300F
:103E9C0030003230303000323530300046554C4C2A
:103EAC0000555342004C53420043570038304D00EC
:103EBC0036304D0034304D0033304D0032304D0033
:103ECC0031374D0031354D0031324D0031304D0020
:00000001FF
